:1000000000180020C1000000C91600008D16000075
:100010008D1600008D1600008D1600008D16000054
:100020008D1600008D1600008D160000C916000008
:10003000C91600008D160000B51A0000851B0000CF
:10004000C9160000C9160000C9160000C916000034
:10005000C9160000C9160000C9160000C916000024
:10006000C9160000C9160000C9160000C916000014
:10007000511700002918000001190000C9160000DE
:10008000C9160000C9160000D5060000C9160000F8
:10009000C9160000C9160000C9160000C9160000E4
:1000A000790D0000C9160000C9160000C91600002D
:1000B000C9160000C9160000C9160000C9160000C4
:1000C000F8B501F005FB0821474A484B1A60484A39
:1000D000484B1A60484A494B1A60494B1A780A4201
:1000E00002D01A780A431A702A22464B46481A70E0
:1000F00000234649464C1A188A4203D2E558043375
:100100001560F8E70021434B434A934201D202C3F2
:10011000FBE70023414A424958589446985004331B
:10012000C02BF9D100210326FF2580248A083D4BEE
:100130009200D2180B002F003340DB009F40106864
:100140000131B84307002000984003003B4313608F
:100150002029EBD16246344B1A608A22334B1A7045
:10016000334B663A5A707C321A709E3A9979114232
:10017000FCD0102299791142FCD10C209A792C499B
:100180000240082AFAD1053A0A713D324A71203AF2
:1001900099791142FCD0402299791142FCD025492D
:1001A000254A11602021224A117014399A790A4097
:1001B0000C2AFBD1214A224B1A60224A224B1A6098
:1001C0000022224B1A60224B07321A60214A224B2E
:1001D0001A6062B600F0BEFC01F0FEFF01F07EFA8C
:1001E00001F0FAF9FEE7C046300004F03480044024
:1001F000823F0000388004400100000F3C80044032
:1002000002D0074000E0074020FDFF1F3CFEFF1F1B
:100210003C2400003CFEFF1F0402002000F9FF1FE9
:100220000000000000E400E008ED00E0005006409F
:10023000004006400000011044800440C000050555
:10024000048004407FBB000014E000E018E000E000
:1002500010E000E00000202020ED00E0FFFFFFFFA5
:10026000FFFFFFFFFFFFFFFFFFFFFFFFFFFFFFFF9E
:10027000FFFFFFFFFFFFFFFFFFFFFFFFFFFFFFFF8E
:10028000FFFFFFFFFFFFFFFFFFFFFFFFFFFFFFFF7E
:10029000FFFFFFFFFFFFFFFFFFFFFFFFFFFFFFFF6E
:1002A000FFFFFFFFFFFFFFFFFFFFFFFFFFFFFFFF5E
:1002B000FFFFFFFFFFFFFFFFFFFFFFFFFFFFFFFF4E
:1002C000FFFFFFFFFFFFFFFFFFFFFFFFFFFFFFFF3E
:1002D000FFFFFFFFFFFFFFFFFFFFFFFFFFFFFFFF2E
:1002E000FFFFFFFFFFFFFFFFFFFFFFFFFFFFFFFF1E
:1002F000FFFFFFFFFFFFFFFFFFFFFFFFFFFFFFFF0E
:10030000FFFFFFFFFFFFFFFFFFFFFFFFFFFFFFFFFD
:10031000FFFFFFFFFFFFFFFFFFFFFFFFFFFFFFFFED
:10032000FFFFFFFFFFFFFFFFFFFFFFFFFFFFFFFFDD
:10033000FFFFFFFFFFFFFFFFFFFFFFFFFFFFFFFFCD
:10034000FFFFFFFFFFFFFFFFFFFFFFFFFFFFFFFFBD
:10035000FFFFFFFFFFFFFFFFFFFFFFFFFFFFFFFFAD
:10036000FFFFFFFFFFFFFFFFFFFFFFFFFFFFFFFF9D
:10037000FFFFFFFFFFFFFFFFFFFFFFFFFFFFFFFF8D
:10038000FFFFFFFFFFFFFFFFFFFFFFFFFFFFFFFF7D
:10039000FFFFFFFFFFFFFFFFFFFFFFFFFFFFFFFF6D
:1003A000FFFFFFFFFFFFFFFFFFFFFFFFFFFFFFFF5D
:1003B000FFFFFFFFFFFFFFFFFFFFFFFFFFFFFFFF4D
:1003C000FFFFFFFFFFFFFFFFFFFFFFFFFFFFFFFF3D
:1003D000FFFFFFFFFFFFFFFFFFFFFFFFFFFFFFFF2D
:1003E000FFFFFFFFFFFFFFFFFFFFFFFFFFFFFFFF1D
:1003F000FFFFFFFFFFFFFFFFFFFFFFFFFFFFFFFF0D
:10040000FFFFFFFFFFFFFFFFFFFFFFFFDEF9FFFF23
:1004100010B5064C2378002B07D1054B002B02D0DA
:10042000044800E000BF0123237010BD3CFEFF1F05
:10043000000000003C240000084B10B5002B03D046
:100440000749084800E000BF07480368002B00D1B7
:1004500010BD064B002BFBD09847F9E700000000C9
:1004600040FEFF1F3C2400003CFEFF1F0000000078
:100470000121074B1970074B1A6852181A601A6845
:10048000292A03D1044A117000221A607047C0461D
:1004900058FFFF1F4CFFFF1F5AFEFF1F094982B084
:1004A0000B68094A0093009B10681B1A0F2B07D991
:1004B00006480368013303600B680193019B1360D6
:1004C00002B0704760FFFF1F70FEFF1F78FEFF1F26
:1004D00010B50024204B21001C60204B02201C7012
:1004E0001F4B1C701F4B1C601F4B1C601F4B1C6064
:1004F00000F074FA02221E49100000F0A5FA04224E
:100500001C4B1D481A701D4A1D4B1E491A801E4B5C
:100510001A681C60086040212C200A4002431A60BF
:100520001A481B4A10601A680A431A608022194B45
:10053000D2021A602200184BE2500434C82CFBD1BE
:10054000164C0121207800F049FA20680121C0B240
:1005500000F024FA10BDC04668FEFF1F58FFFF1FC1
:100560005AFEFF1F4CFFFF1F78FEFF1F60FEFF1F9C
:100570009D04000059FFFF1F7C9200007C92FFFF4A
:100580005AFFFF1F089003400090034071040000D1
:1005900024FDFF1F00E100E080FEFF1F20FDFF1F84
:1005A000F8B50E2000F04CF91E4B18601E4B1A686F
:1005B000821AD11752184A40052A00DD18601B49DB
:1005C0001B4C0A681B4D9600206877591B68C01B9E
:1005D000C018013273512060312A01DC0A6001E049
:1005E00000230B60322101F079FBB422124B520040
:1005F00018605043C3179B059B0D181880120F4BB2
:1006000001B218600E4B914201DC198002E069389A
:10061000FF38188000215A5E002A02DA6932FF3260
:100620001A80F8BD7CFEFF1F68FEFF1F48FFFF1FFA
:1006300074FEFF1F80FEFF1F54FFFF1F5CFEFF1FA5
:1006400058FEFF1F70B5FFF7ABFF174B1A78002A53
:1006500029D000241C70154B154D1A78A2420CD0DD
:10066000144E1C703268144B1A60186801F076FD45
:10067000124901F03DFC346028601149286801F0FE
:1006800037FC01F049FD0F4A03B20F481380037095
:100690001B1243700D4B042100229B5E83701B12C2
:1006A000C37000F005FF70BD58FFFF1F5AFEFF1F0B
:1006B00050FFFF1F78FEFF1F60FEFF1F000010406D
:1006C0000000C8426CFEFF1F64FEFF1F58FEFF1FA4
:1006D0007047FFFF044B10B51A68110600D51A6069
:1006E000024B1B68984710BD0090034024FDFF1F7C
:1006F0008023F0B51D4A10681840FCD172B61C4C1E
:100700002378002B30D01B4B1F681B4B1A681B4BE8
:10071000BA181E681A4B92191D681A4B521919689B
:10072000194B52181B68194DD21892B25208184B27
:100730002A4392B21A60174B17491B68174A9C4606
:10074000174B1B6812680F68164963440E681649F8
:100750009B180968DB199B195A1893B25B082B4345
:10076000124A9BB21360207062B6F0BD24B0034001
:100770005DFFFF1F38B003403CB0034040B0034072
:1007800044B0034048B003404CB003400080FFFF3A
:100790002CB0034058B0034064B0034060B0034045
:1007A0005CB0034068B003406CB0034030B003401D
:1007B0001B4B1C4A19781C4B082901D1002102E06F
:1007C0000A2903D12E311160132206E00C2901D130
:1007D000283100E03C21116012221A60134B1A7874
:1007E000134B002A01D0002200E001221A60114BB5
:1007F0001A78114B012A01D880220CE0042A01D872
:10080000842208E0082A01D8852204E0102A01D8B1
:10081000862200E087221A600122084B1A70704776
:1008200028FDFF1F08B003400CB003405FFFFF1F0F
:1008300020B0034029FDFF1F24B003405DFFFF1FD0
:10084000F8B503000020272B33D81A4AD45CFF2CBC
:100850002FD0194B1B78834201D0FFF749FF72B6A6
:1008600010274022154B144205D01A68BA431A606B
:100870003F231C4002E01A683A431A600123104EDD
:10088000104D34602B7062B672B68022336813420A
:1008900008D00D4B186800232B7062B60B4B1B78E9
:1008A000184106E02B78002BDBD062B600F09EFEEC
:1008B000EAE7F8BD242200005DFFFF1F0CB00340F3
:1008C00000B003405EFFFF1F10B003405CFFFF1F3E
:1008D0007047FFFF074B70B51D681D60064BDA6857
:1008E0001C00AB0700D5904723696A0700D59847DD
:1008F00070BDC046A09004402CFDFF1F244B70B576
:100900001D68244C1D60636A2A0700D59847A36AB6
:10091000EA0600D59847E36A6A0600D59847236B34
:100920002A0600D59847636BAA0600D59847E36B63
:10093000EA0700D59847A36DAA0700D59847E36D4D
:100940006A0700D59847144B1D681D60A368EA0725
:1009500000D5984763692A0600D59847A369EA0637
:1009600000D59847E3696A0700D59847236A2A07A4
:1009700000D59847A36BAA0700D59847236DAA0610
:1009800000D59847636D6A0600D5984770BDC0468C
:10099000A0B004402CFDFF1FA0C0044010B51A28D1
:1009A00018D80C2358430C4A835810181C7D027A1F
:1009B000224205D0002901D01A710BE01A7209E019
:1009C00043681A68002902D003210A4301E002218A
:1009D0008A431A6010BDC0464C220000F0B51A28A8
:1009E0002FD80C2217004743164CE5196B682600D8
:1009F000012901D0042911D1504334583018257DE4
:100A0000027A20202A432275A22252001A601A6814
:100A1000042901D1024313E0824311E038592C7AB2
:100A2000027DA24302758022002908D0022902D14A
:100A30000422FF3204E00022032901D18122520066
:100A40001A60F0BD4C220000F8B505000F001A280E
:100A500034D8042A32D8100001F0A2F8070905039F
:100A60000B00092406E00A2404E0082402E00C2418
:100A700000E00B240C236B43114A2404D3185E6856
:100A8000E0233168DB00194002D12800FFF7A6FF00
:100A90000C4B0D491A00B83211600C4ABC331A6075
:100AA00072B60B4B3268AD001A4080235B04326093
:100AB0001343084A1C43AF50346062B6F8BDC046C9
:100AC0004C22000000F9FF1FD5080000FD080000BF
:100AD000FFFFF0FF2CFDFF1F72B60C4B1A680C4B8A
:100AE00018680C4B1B6862B65B0104D53223934235
:100AF0009B415B42C018084B9A1A084B5A43FA2391
:100B00009B005843920D10187047C04618E000E053
:100B100060FFFF1F04ED00E07FBB000055550100A2
:100B200070B50400FFF7D8FF0500002C0FD0FFF7C9
:100B3000D3FF074B401B984206D9013C002C06D03E
:100B4000FA239B00ED18F2E700F050FDEFE770BDCF
:100B5000E703000080221E4BD20510B51A608022E8
:100B6000002012061A601B4B1B4918601B4B1C4AC5
:100B70001960282313601B4A1B4C13601B4A136027
:100B80001B4A13601B4A13601B4A13600922226030
:100B90001A4C20601A4C21601A4C23601A4C2360B6
:100BA0001A4C22601A4C20601A4801601A490B60E6
:100BB0001A490B601A4B1A60FFF7FAFD1920FFF76C
:100BC000AFFF00F0C7FB1420FF30FFF7A9FF10BDF7
:100BD00000E100E004800340FFBF00000880034004
:100BE0000C80034014800340008003401C800340BD
:100BF000248003402C800340348003400490034051
:100C0000089003400C900340149003400090034070
:100C100004A0034008A003400CA0034014A003401C
:100C200000A003400223F0B50A4A0B4E1478C827EF
:100C30002343DB00F518686008480578002D00D1D3
:100C4000403F09040F43F75001235D405C400570AD
:100C50001470F0BDCCFFFF1F00F8FF1F4400002000
:100C6000431E0020032B09D872B6054A9B009B58EF
:100C7000002B02D001305B68FAE762B67047C046CD
:100C800010000020F8B572B60123174A08259446D3
:100C90001E00164964465A1EA25C2A421AD05F0101
:100CA0007C589A00002C05D1CB1908305860104BA5
:100CB000CB5109E03243D2005458002C0AD18B1892
:100CC000083058600B4B8B500B4A1378013B137064
:100CD00062B608E00133052BDCD162B60022064B78
:100CE0001A7000F0ADFBF8BD9023000000F8FF1F64
:100CF00088004000C80040003A000020421E10B5A5
:100D0000032A30D8022380001843174BC0001B1859
:100D100072B6164CA05C03280BD800F041FF1604F5
:100D20000207052012E0083302200FE008330420F8
:100D30000CE00F48920014580E4B002C01D11150BA
:100D400001E09858416099500CE00320A0540A003B
:100D500008325A60C822180700D4403A09880904AA
:100D60000A431A6062B610BD00F8FF1F78FFFF1F2C
:100D70001000002020000020F7B5B64B1C781D00A5
:100D80000423E4B21C421DD0B34B1B78002B16D0B9
:100D9000B24A1378DBB2002B05D0013BDBB21370F3
:100DA000002B00D100BEAE4A1378DBB2002B06D078
:100DB000013BDBB21370002B01D100F0E9FB0422F0
:100DC000A44B1A700822224000D159E2A54BA64F2D
:100DD0001B78DBB29C08E4001D093C19002D00D0F3
:100DE000DFE1226863689006000F01380C2800D903
:100DF000D3E100F0DFFE96019601D201D201D201CB
:100E0000D201D201D201AF01D201D201D2010D0033
:100E10001A68964E5B689649736000230B60012147
:100E2000944832602060944C92B22170934C3B61A4
:100E3000BB610190A24218D8D020C000824200D3EA
:100E4000E7E081204000824200D1C4E006D8802A39
:100E500000D1A9E0822A00D1ABE0F7E0884B9A42AA
:100E600000D1C7E0FF33FF331AE08648824200D149
:100E700054E110D888231B019A4200D18EE08033C0
:100E80009A4200D0E2E03C003D00B278724B203440
:100E90001A70A03508E07C498A4200D1CEE07B4B35
:100EA0009A4200D114E1D1E080222368134203D09A
:100EB0006068083800F0C4FA0834AC42F4D1002469
:100EC0002500734BE058002805D04368009300F0DC
:100ED000B7FA0098F7E76E4B18516E4BE0506E4B27
:100EE000E058002805D04368009300F0A9FA009864
:100EF000F7E7694B694A1851694BE0506B00D052D3
:100F0000684BE85C0238032807D800F049FE020469
:100F10000204002200E001225A5501350434042D58
:100F2000CFD100230124604D2B70604B6049621EBD
:100F3000E3188A5C9B001A7008231A4220D000F044
:100F400061FA6301002805D0FA1808305060594A48
:100F5000FA5003E0F8502B7801332B7000F052FA6E
:100F60000122A3001343DB00002805D0FA18083043
:100F70005060019AFA5003E0F8502B789B182B70C0
:100F800002210023A2001143C9007B5003210A4320
:100F90008A400134BB50052CC7D19AE02E4B464CF9
:100FA0001B7823700B0095E0434C23706370022381
:100FB00090E07F22B0880240042A47D83E4C92003D
:100FC000237063703D4BD218022312781A4200D16D
:100FD00080E021707EE07F23B2881A40042A35D851
:100FE0007388002B32D102203449920052181178B4
:100FF000814329E07F23B2881A40042A26D87388C7
:10100000002B23D102202D49920052181178014360
:101010001AE07288B1882A4B5C68002C16D01888B8
:10102000904209D15888884206D1120A032A01D178
:1010300023784FE01B894DE00C33EDE7214A11681E
:10104000214A1160B178214A117042E00F221B4BF6
:101050001A7063E08020074043000020CDFFFF1F8F
:10106000450000209020074000F8FF1F30000020BE
:1010700064FFFF1FC80040004400002081060000FC
:101080000203000021200000212200002123000093
:10109000BCFFFF1F68FFFF1F10000020F0010020B1
:1010A0002000002078FFFF1F3A00002030C8011008
:1010B00090230000880040003B000020C020074033
:1010C0009423000060FFFF1F000200205400002056
:1010D00000231C00F5889D4200D91D002E00402DE4
:1010E00000D9402620003100FFF79CFDA419AD1B5C
:1010F00003D12F00402E04D010E04027AF4200D98A
:101100002F0020003900FFF78DFDE419ED1B01D100
:10111000402F03D1764B1C60764B1D800122764B0D
:101120003AE07649764A0988914210D10022754901
:10113000985C88540132072AFAD10B68862B02D1B9
:10114000714B08321A7000210800FFF76BFD6F4BDE
:10115000236022E0664F3E68002E13D0654B1C884A
:101160002500402C00D9402529003000FFF75AFD0A
:10117000641B604BA4B21C80002C01D1402D00D117
:1011800074193C60A0225D4BD2001988914204D1B1
:1011900000225A709A785E4B1A700122564B1A70D0
:1011A0006AE008226068013D0838EDB2134037D08C
:1011B00000F046F95749A8004258574B002A1CD066
:1011C000566846501100585D0831616003280BD8FD
:1011D00000F0E6FC02040608032104E0022102E01C
:1011E000052100E0042159550821C8230C4200D1F3
:1011F000403B1288120413433DE0585D032808D891
:1012000000F0CEFC3A3A0204002200E001225A55D6
:1012100032E008221440621E944102345C552BE0F7
:101220002268110C8AB2028000291ED03B494380FB
:101230004360AB005F583A4E002F01D1585001E097
:10124000F158486037496D00F0506B5AD2186A5215
:1012500000F0D8F8002802D00830606005E0324A7B
:10126000206013780133137006E008231C4201D17B
:101270002E4B00E0254B236008222D4B1A707CE595
:10128000012004421ED002231B49284C0B70294B1D
:10129000294E1A70294B1C609C60294C1A61DC6035
:1012A0000D249A615E60274B1C70FF23264C23702F
:1012B000174C2B702270254A13709F22244B1A70F2
:1012C000087013E063B2002B04DA0D221D4B1A7074
:1012D00080232B700222144204D01B490B78DBB20E
:1012E0000B702A7010231C4200D02B70F7BDC04633
:1012F00064FFFF1F380000209420074030000020CA
:1013000021200000F8010020CDFFFF1FC800400091
:10131000982007401000002078FFFF1FBCFFFF1F30
:1013200068FFFF1FF00100203A0000208800400005
:1013300080200740CCFFFF1F7CFFFF1F00F8FF1F2E
:10134000D0FFFF1FC0200740882007408C200740A7
:101350008420074010B500F045FB002211001B4B14
:10136000D150981808324160882AF9D18020184954
:10137000C0020A6802430A601A0A1649D2B20A7009
:101380001A0C1549D2B20A70144A1B0E1370FF23AF
:10139000134A00201370134A13491370134A137031
:1013A00001220A701249087012490A70124A116823
:1013B00099430B0070210B43136080220F4B5204A2
:1013C0001A6010220E4B1A7010BDC04600F8FF1FA5
:1013D000348004409C200740B0200740B4200740E0
:1013E00080200740882007409420074010200740B5
:1013F000002107408420074018E400E000E100E0FD
:101400000821074070B572B60B4D2C68200000F023
:1014100051FD0B2802DD62B600200CE080231B0684
:10142000C3409C432C6062B648235843034B1818B2
:1014300000230360436070BD98FDFF1FC0F9FF1FCC
:1014400010B504000E484821201A00F0BDFB0B28FF
:1014500014D80C4B1B78002B07D00B4B1B78002BA0
:1014600003D02000FFF70EFC08E072B680231B06B5
:10147000C340064A11680B43136062B610BDC046F4
:10148000C0F9FF1F3A0000204300002098FDFF1F15
:10149000054B9888054B1A68002A03D01388528898
:1014A0009B1AC0187047C046F00100205000002071
:1014B000314A0123F0B50C00170085B0019002916C
:1014C00013700393002C53D02C4D2B68002B25D187
:1014D0002B4E2C4B1B78DBB2002B01D13B7017E05D
:1014E0000420FFF7BDFB072809D86B461B7B3B7028
:1014F000FFF788FF214B186000280FD13870013E9C
:10150000214B002E02D01A78002A04D001221A7032
:10151000012040422EE000F069F8DAE700221A4B81
:1015200029681A7040234A88981A2300844200D9F7
:101530000300080008308018D2184A800022E41AFC
:10154000934204D0019EB65C86540132F8E7019ABA
:10155000D31801934B883F2B06D9402304200B80DE
:10156000FFF7CCFB00232B600522084B1A70A9E77C
:1015700002983C7005B0F0BD4600002048000020F5
:1015800009750000430000204C00002045000020A9
:1015900070B50E4B1C78E4B2002C15D10C4D2968A7
:1015A000002906D04B8804200B80FFF7A7FB2C6096
:1015B0000AE0FFF727FF011E03D00420FFF79EFB80
:1015C00002E00122034B1A7070BDC04646000020A5
:1015D000480000204500002010B5FEF779FFFFF716
:1015E00031F800F003F8FAE77047FFFF70B5234CBD
:1015F0002378002B40D101332370FFF749FF0028E7
:1016000001D0FFF7F1FF00F093F8002801D000F0BF
:10161000C3FA00F0F9F8002801D000F0BEFA00F09B
:101620005FF9002801D000F0B9FA00232370EFF32E
:101630000583002B20D1EFF3108272B6104D28687D
:10164000002803D00F4C2178002903D0002A13D1A1
:1016500062B611E00123237043692B60002B01D097
:10166000996101E008490B60002A00D162B60025AB
:10167000836845779847257070BDC04655000020A7
:10168000E4010020E8010020E001002070B5802581
:101690008026ED02F6000B4C23682B4201D0FFF7A9
:1016A0006BFB2368334201D000F052F823681B051E
:1016B00001D500F0B9F82368DB04ECD500F020F97F
:1016C000E9E7C0463480044010B5FFF7DFFFFFFFB5
:1016D0000022014B1A607047008104407047F8B542
:1016E00006000D00170000243900300000F0F2FA67
:1016F0000B003733DBB2092901D83031CBB23000CF
:101700002B55390000F060FA061E01D00134EBE7DA
:101710002B1958702B005A1B944206DD1A78295D4C
:1017200019702A550133013CF5E72800F8BDFFFF89
:10173000054B1878054BC0B21A78D3B2984200D244
:101740004030C01A7047C046D90000205700002022
:1017500030B5234A13799B0611D5224BD4791878DA
:1017600019000130E4B200233F2800DC03001E48CA
:101770000078834203D01D48C454DBB20B70D1788B
:101780001748C9B24BB2002B17DA03795BB2002BB2
:1017900013DA174B174C1D782378DBB29D4202D128
:1017A0006C23C37009E001333F2B00D9002312489A
:1017B000C05CDBB2C0B2D0712370402319420ED09E
:1017C000117919420BD000210C4B19700C4B1B687E
:1017D0008B4202D00B49097819722C23D37030BD8B
:1017E00000A00640D90000205700002098000020EB
:1017F000E0000020DA000020580000205600002001
:10180000DC000020D8000020054B1878054BC0B242
:101810001A78D3B2984200D24030C01A7047C046FE
:101820004C010020E200002030B5234A13799B06CA
:1018300011D5224BD479187819000130E4B2002375
:101840003F2800DC03001E480078834203D01D4877
:10185000C454DBB20B70D1781748C9B24BB2002B1D
:1018600017DA03795BB2002B13DA174B174C1D788C
:101870002378DBB29D4202D16C23C37009E00133AF
:10188000272B00D900231248C05CDBB2C0B2D07154
:101890002370402319420ED0117919420BD0002138
:1018A0000C4B19700C4B1B688B4202D00B4909780A
:1018B00019722C23D37030BD00B006404C010020BB
:1018C000E20000200B010020540100204D01002007
:1018D000E3000020E1000020500100204B01002027
:1018E000054B1878054BC0B21A78D3B2984200D293
:1018F0004030C01A7047C046C80100205D0100207A
:1019000030B52C4A13799B0623D52B4BD479187804
:1019100019000130E4B200233F2800DC030027480F
:101920000078834203D02648C454D8B208702549B1
:10193000086800280DD024490978C9B28B4201D328
:101940005B1A01E05B1A4033272B02DD1F4B1B782B
:101950000371D1781748C9B24BB2002B17DA03795B
:101960005BB2002B13DA1A4B174C1D782378DBB2CD
:101970009D4202D16C23C37009E00133272B00D9AB
:1019800000231448C05CDBB2C0B2D0712370402386
:1019900019420ED0117919420BD000210E4B19704B
:1019A0000E4B1B688B4202D00D49097819722C230B
:1019B000D37030BD00C00640C80100205D0100208A
:1019C0008701002058010020C90100208601002065
:1019D000D00100205E0100205C010020CC0100202D
:1019E000C701002030B585B072B670224121154B79
:1019F0001A70154A1170154A3239117080221A7006
:101A00001A7852B2002AFBDA114B186862B6114BF1
:101A1000984201D80A23584301AC0A222100FFF75B
:101A20005EFE00230C48E15C0500002905D05A0049
:101A30008218013351800A2BF5D101335B002B70E2
:101A400005B030BD00000240070002400600024021
:101A5000080002407F96980024FEFF1FEFF31080DD
:101A600072B643425841C0B27047002800D062B6F7
:101A70007047FFFF10B5FFF7F1FF0C4A1468002C08
:101A800010D063691360002B02D000229A6101E03C
:101A9000074A1360FFF7E9FF002320006377A3687C
:101AA0009847E8E7FFF7E1FF10BDC046D4010020EA
:101AB000D801002010B5FFF7DDFF10BD164930B585
:101AC0000B68002B02D18360C36009E004681A68C8
:101AD000944207D20025121B8360C560D8601A604B
:101AE000086016E002681C689968121B02600029F1
:101AF0000CD00C680B00A242F4D28160C968A21A13
:101B0000C160D860C16888601A6002E08160C3600B
:101B100098600223037530BDDC01002070B5174DBD
:101B20002C68002C19D02368002B02D0013B2360C5
:101B300013E0A268002A00D0D360002120692A6047
:101B4000036821751B68220098476368002BE7D063
:101B500023602000FFF7B2FFE2E7FFF77FFF0022DC
:101B6000074B1C681A60FFF780FF002C05D0A568A2
:101B70002000FFF7A3FF2C00F7E770BDDC01002079
:101B8000EC01002010B5034A136801331360FFF71E
:101B9000C5FF10BD60FFFF1F704770477047FFFF14
:101BA00002B4714649084900095C49008E4402BCF0
:101BB0007047C04603B47146490840004900095ABD
:101BC00049008E4403BC7047002243088B4274D303
:101BD00003098B425FD3030A8B4244D3030B8B422E
:101BE00028D3030C8B420DD3FF22090212BA030C37
:101BF0008B4202D31212090265D0030B8B4219D318
:101C000000E0090AC30B8B4201D3CB03C01A524137
:101C1000830B8B4201D38B03C01A5241430B8B427F
:101C200001D34B03C01A5241030B8B4201D30B0368
:101C3000C01A5241C30A8B4201D3CB02C01A52418F
:101C4000830A8B4201D38B02C01A5241430A8B4252
:101C500001D34B02C01A5241030A8B4201D30B023B
:101C6000C01A5241CDD2C3098B4201D3CB01C01A55
:101C7000524183098B4201D38B01C01A524143095F
:101C80008B4201D34B01C01A524103098B4201D34D
:101C90000B01C01A5241C3088B4201D3CB00C01ABA
:101CA000524183088B4201D38B00C01A5241430832
:101CB0008B4201D34B00C01A5241411A00D2014657
:101CC000524110467047FFE701B5002000F0F0F8E0
:101CD00002BDC0460029F7D076E7704703460B43A4
:101CE0007FD4002243088B4274D303098B425FD315
:101CF000030A8B4244D3030B8B4228D3030C8B4241
:101D00000DD3FF22090212BA030C8B4202D3121226
:101D1000090265D0030B8B4219D300E0090AC30BFB
:101D20008B4201D3CB03C01A5241830B8B4201D3A8
:101D30008B03C01A5241430B8B4201D34B03C01A91
:101D40005241030B8B4201D30B03C01A5241C30A09
:101D50008B4201D3CB02C01A5241830A8B4201D37A
:101D60008B02C01A5241430A8B4201D34B02C01A64
:101D70005241030A8B4201D30B02C01A5241CDD209
:101D8000C3098B4201D3CB01C01A524183098B4254
:101D900001D38B01C01A524143098B4201D34B013D
:101DA000C01A524103098B4201D30B01C01A5241A0
:101DB000C3088B4201D3CB00C01A524183088B4227
:101DC00001D38B00C01A524143088B4201D34B0010
:101DD000C01A5241411A00D2014652411046704782
:101DE0005DE0CA0F00D04942031000D34042534087
:101DF00000229C4603098B422DD3030A8B4212D347
:101E0000FC22890112BA030A8B420CD38901921178
:101E10008B4208D3890192118B4204D389013AD0B5
:101E2000921100E08909C3098B4201D3CB01C01A8A
:101E3000524183098B4201D38B01C01A524143099D
:101E40008B4201D34B01C01A524103098B4201D38B
:101E50000B01C01A5241C3088B4201D3CB00C01AF8
:101E6000524183088B4201D38B00C01A5241D9D210
:101E700043088B4201D34B00C01A5241411A00D291
:101E80000146634652415B10104601D34042002B8D
:101E900000D54942704763465B1000D3404201B50C
:101EA000002000F005F802BD0029F8D016E77047C1
:101EB0007047C0461C2101231B04984201D3000C2B
:101EC00010391B0A984201D3000A08391B099842AD
:101ED00001D30009043902A2105C40187047C046C3
:101EE00004030202010101010000000000000000E3
:101EF000F0B557464E4645464300E0B44602884694
:101F0000760A1F0EC40F002F47D0FF2F25D00023C5
:101F100080259A469946F600ED042E437F3F4346BE
:101F200042465D02D20F5B006D0A1B0E904640D008
:101F3000FF2B39D080220020ED00D20415437F3BD7
:101F4000FB1842465746591C62408C4607430F2FE8
:101F50005CD86F49BF00C9598F46002E45D1082370
:101F60009A46063B9946DAE7424602282DD00328D6
:101F700000D1C3E0012800D0A2E0002500260240E5
:101F8000D4B27602ED05760A2E43E40726433000EC
:101F90001CBC90469946A246F0BD002E1AD10423DF
:101FA0009A46033B9946BAE72A00511E8A41901C83
:101FB000C6E70120002DC3D02800FFF77BFF431F99
:101FC00076309D4043420020BAE70124FF251440AB
:101FD0000026D6E73000FFF76DFF431F9E40002329
:101FE000763047429A46994699E70C239A46093B30
:101FF000994694E780260024F603FF25C1E73500C3
:102000004846B2E7350022004846AEE72904090CED
:102010000800370C3604360C2C0C794370436743A8
:102020007443060C64183619B14203D98021490261
:10203000884647440004000C310409188D01681ECD
:102040008541890E2943350CED19AD010D43290158
:1020500004D5012369081D4063460D4319007F31F3
:10206000002925DD680704D00F202840042800D06F
:102070000435280103D5274980330D401900FE2976
:10208000A3DC0124AD016E0A1440CDB279E78020B3
:10209000C003064207D0054205D128434602760A0E
:1020A0004446FF256DE706437602760AFF2568E77A
:1020B0000124611A1B2905DD14400025002660E774
:1020C0006346CBE72E002023CE40591A8D406B1E6D
:1020D0009D412E43730704D00F233340042B00D0BF
:1020E0000436730104D5012401251440002648E775
:1020F0000124B601760A1440002542E78026012417
:10210000F6032E437602760A1440FF2539E7C046CF
:10211000E8230000FFFFFFF74302590A4300C20F04
:102120001B0E00207E2B0EDD9D2B0DDC802000047D
:102130000143952B0BDC9620C31AD9400B00584263
:10214000002A00D118007047034BD018FBE7963BDC
:1021500099400B00F3E7C046FFFFFF7F70B5041EF8
:1021600028D0FFF7A7FE9E231B1A962B0ADC962287
:10217000D21A94406202520AD8B25202520AC005E0
:10218000104370BD992B18DC9922D21A9440114A41
:102190002240610704D00F210C40042C00D00432EF
:1021A000510103D50B4B1A409F231B1A9201520A6F
:1021B000D8B2E2E700200022DFE705222500121A4C
:1021C000B921D5402200C91A8A40541EA2412C00D0
:1021D0001443DCE7FFFFFFFB0E4B70B500251E002C
:1021E0000D4CE41AA410A54204D0AB00F358984754
:1021F0000135F8E700F018F9084B00251E00084CDF
:10220000E41AA410A54204D0AB00F3589847013556
:10221000F8E770BD342400003424000034240000AA
:1022200038240000050E08090D0C06070F0B0044AA
:1022300017FF050E08090D0C06070F0B004417FFCA
:10224000FFFFFFFFFFFFFFFFFFFF1A1B420000F829
:1022500040A0044001000000420000F844A00440F7
:1022600002000000C00000F800C0044001000000AF
:10227000000000F80490044002000000000000F894
:102280000890044004000000C00000F81CC0044096
:1022900080000000C00000F810C0044010000000E2
:1022A000C00000F808C0044004000000C00000F8AE
:1022B0000CC0044008000000800000F80CB004408E
:1022C00008000000800000F810B00440100000007A
:1022D000800000F818B0044040000000800000F8C2
:1022E0001CB0044080000000800000F814B00440DE
:1022F00020000000C00000F804C0044002000000FC
:10230000800000F800B0044001000000400000F828
:1023100000A0044001000000400000F804A00440B8
:1023200002000000400000F80CA00440080000007B
:10233000400000F808A0044004000000C00000F8BD
:1023400014C0044020000000C00000F818C0044081
:1023500040000000800000F804B0044002000000CB
:10236000800000F808B0044004000000020100F8FA
:1023700050D0044010000000020100F854D0044086
:1023800020000000030100F878D004404000000065
:1023900000151915000100009CFDFF1F1200000030
:1023A00000020000C6FDFF1F430000000003000004
:1023B00020FEFF1F0000000001030904AEFDFF1F07
:1023C00000000000020309040AFEFF1F00000000D5
:1023D0000303090424FEFF1F0000000000000000AA
:1023E00000000000000000000C2000006A1F000038
:1023F0006A1F0000681F0000FE1F0000FE1F000093
:10240000F41F0000681F0000FE1F0000F41F000002
:10241000FE1F0000681F00000420000004200000D0
:10242000042000008E200000F8B5C046F8BC08BCAF
:082430009E46704739040000CC
:04243800F8B5C046ED
:10243C000D000000D10600000A040000D1080000C5
:10244C00D1080000D1080000D1080000D10800001C
:10245C00D1080000D1080000D1080000D10800000C
:10246C00D1080000D1080000D1080000D1080000FC
:10247C00D1080000D1080000D1080000D1080000EC
:10248C00D1080000D1080000D1080000D1080000DC
:10249C00D1080000D1080000D1080000D1080000CC
:1024AC00D1080000D1080000FFFFFFFF120110014E
:1024BC0002000040C01683047302010203011803DA
:1024CC005400650065006E007300790064007500AF
:1024DC0069006E006F0009024300020100C032095E
:1024EC000400000102020100052400100105240172
:1024FC0001010424020605240600010705820310CD
:10250C00004009040100020A000000070503024014
:10251C00000007058402400000001603550053001C
:10252C0042002000530065007200690061006C00DD
:10253C00040309040C03000000000000000000006C
:0C254C0000000000000000000000000083
:00000001FF
